{
  "fileName": "MappingStruct.sol",
  "contractName": "MyMapping",
  "source": "//\"SPDX-License-Identifier: UNLICENSED\"\npragma solidity ^0.6.3;\n\ncontract MyMapping {\n\n    struct Payment {\n        uint amount;\n        uint timestamp;\n    }\n    \n    struct Balance {\n        uint totalBalance;\n        uint numPayment;\n        mapping(uint => Payment) payments;\n    }\n\n    mapping(address => Balance) public balanceReceived;\n    \n    function getBalance() public view returns(uint) {\n        return address(this).balance;\n    }\n\n    function sendMoney() public payable {\n        \n        balanceReceived[msg.sender].totalBalance += msg.value;\n\n    }\n}",
  "sourcePath": "contracts/MappingStruct.sol",
  "abi": [
    {
      "inputs": [
        {
          "internalType": "address",
          "name": "",
          "type": "address"
        }
      ],
      "name": "balanceReceived",
      "outputs": [
        {
          "internalType": "uint256",
          "name": "totalBalance",
          "type": "uint256"
        },
        {
          "internalType": "uint256",
          "name": "numPayment",
          "type": "uint256"
        }
      ],
      "stateMutability": "view",
      "type": "function"
    },
    {
      "inputs": [],
      "name": "getBalance",
      "outputs": [
        {
          "internalType": "uint256",
          "name": "",
          "type": "uint256"
        }
      ],
      "stateMutability": "view",
      "type": "function"
    },
    {
      "inputs": [],
      "name": "sendMoney",
      "outputs": [],
      "stateMutability": "payable",
      "type": "function"
    }
  ],
  "bytecode": "0x608060405234801561001057600080fd5b506101a4806100206000396000f3fe6080604052600436106100345760003560e01c806312065fe014610039578063cbedbf5a14610064578063d18a42e11461006e575b600080fd5b34801561004557600080fd5b5061004e6100da565b6040518082815260200191505060405180910390f35b61006c6100f9565b005b34801561007a57600080fd5b506100bd6004803603602081101561009157600080fd5b81019080803573ffffffffffffffffffffffffffffffffffffffff16906020019092919050505061014a565b604051808381526020018281526020019250505060405180910390f35b60003073ffffffffffffffffffffffffffffffffffffffff1631905090565b346000803373ffffffffffffffffffffffffffffffffffffffff1673ffffffffffffffffffffffffffffffffffffffff16815260200190815260200160002060000160008282540192505081905550565b6000602052806000526040600020600091509050806000015490806001015490508256fea2646970667358221220427bb1c6164d79842c14f22cd96320a0d991597bc3db7de7f5f7a5c61afecd6864736f6c634300060c0033",
  "compiler": {
    "name": "solc",
    "version": "0.6.12+commit.27d51765.Emscripten.clang",
    "optimizer": {
      "enabled": false,
      "runs": 200
    },
    "evmVersion": "petersburg"
  }
}